:020000040800F2
:1000000000000820A11F00080109000803090008DA
:100010000509000807090008090900080000000098
:100020000000000000000000000000007116000841
:100030000B09000800000000A11600080D090008C7
:10004000F11F0008F11F0008F11F0008F11F000850
:10005000F11F0008F11F0008F11F0008F11F000840
:10006000F11F0008F11F0008F11F0008F11F000830
:10007000F11F0008F11F0008F11F0008F11F000820
:10008000F11F0008F11F0008F11F0008F11F000810
:10009000F11F0008F11F0008F11F0008F11F000800
:1000A000F11F0008F11F0008F11F0008F11F0008F0
:1000B000F11F0008F11F0008F11F0008F11F0008E0
:1000C000F11F0008F11F0008F11F0008F11F0008D0
:1000D000F11F0008F11F0008F11F0008F11F0008C0
:1000E000F11F0008F11F0008F11F0008F11F0008B0
:1000F000F11F0008F11F0008F11F0008F11F0008A0
:10010000F11F0008F11F0008F11F0008F11F00088F
:10011000F11F0008F11F0008F11F0008F11F00087F
:10012000F11F0008F11F0008F11F0008F11F00086F
:10013000F11F0008F11F0008F11F0008F11F00085F
:10014000F11F0008F11F0008F11F0008F11F00084F
:10015000F11F0008F11F0008F11F0008F11F00083F
:10016000F11F0008F11F0008F11F0008F11F00082F
:10017000F11F0008F11F0008F11F00080000000037
:10018000F11F0008F11F0008F11F0008F11F00080F
:10019000F11F0008F11F0008F11F0008F11F0008FF
:1001A000F11F0008F11F0008F11F0008F11F0008EF
:1001B000F11F0008F11F0008F11F0008F11F0008DF
:1001C000F11F0008F11F000800000000F11F0008E7
:1001D000F11F0008F11F0008F11F0008F11F0008BF
:1001E000F11F0008F11F0008F11F0008F11F0008AF
:0801F000F11F0008F11F0008D7
:1002000010B5054C237833B9044B13B10448AFF350
:1002100000800123237010BD0C00002000000000AE
:100220002020000808B5034B1BB103490348AFF376
:10023000008008BD00000000100000202020000801
:10024000F0B400EB4003DFF8800000EBC30000F1E6
:1002500018063069F768756887422ED3B368DC1BCF
:10026000631E934212D37D19D01900BF11F8013BD0
:1002700005F8013B013A05D011F8013B05F8013BB7
:10028000013AF3D1F0600120F0BC7047C0189042F1
:1002900017D37819121B11F8013B00F8013B013C00
:1002A000F9D1141C05D011F8013B05F8013B013AC6
:1002B000F9D1F4600120F0BC7047C01B01389042B6
:1002C000D1D20020F0BC704730090020034613F85B
:1002D000012B002AFBD1181A01387047024403464B
:1002E000934200D1704703F8011BF9E770B50D4B3D
:1002F0000D4D5B1B9C100026A64209D101F090FE1B
:100300000A4D0B4B5B1B9C100026A64205D170BD0D
:1003100055F8043B98470136EEE755F8043B9847FB
:100320000136F2E7D8210008D8210008D8210008BA
:10033000DC21000801224FF48041014801F052B84D
:10034000000C024000224FF48041014801F04AB8FD
:10035000000C024007B58DF80700FFF7F3FF0022FD
:100360004FF40041084801F03DF84FF0FF330122FF
:100370000DF10701054800F035FD08B100F004FE5D
:10038000FFF7D8FF03B000BD000C0240280000209A
:1003900038B504460D46FFF7D5FF01224FF4004162
:1003A000084801F01FF84FF0FF332A46214606485F
:1003B00000F018FD08B100F0E7FDBDE83840FFF798
:1003C000B9BF00BF000C02402800002007B5012182
:1003D0008DF807000DF10700FFF7DAFF03B000BD4D
:1003E0002DE9F04F1D468318144600F1FF3BF02B1A
:1003F00001EB050301F1FF37A1B0C8BFC0F1F00464
:1004000081464FF000064FF02A00C8BFA4B2B3F5F2
:10041000A07F8846BDF8A8A0C8BFC1F5A075A344B9
:10042000C8BFADB21FFA8BFB2F44FFF793FF9BFAB7
:100430009BFB0421BFB268468DF800607FBA8DF83F
:100440000190ADF802B0FFF7A3FF2B20FFF782FF6A
:10045000042168468DF800608DF80180ADF80270C7
:10046000FFF796FF2C20FFF775FF6B464FEA1A2225
:100470005FFA8AFA01361A7083F801A00233402E1F
:10048000F8D1FFF75FFF01224FF400410C486C43A5
:1004900000F0A8FF402C25464FF0FF33694628BFE7
:1004A000402508486A0092B200F09CFC08B100F0B8
:1004B0006BFD641BEED1FFF73DFF21B0BDE8F08F6F
:1004C000000C0240280000202DE9F0418AB00025F0
:1004D00000F08AFDD74B099505AC01264FF4404842
:1004E0002146D5484FF48057CDE907551A6B42F0A5
:1004F00008021A631A6B02F008020392039A1A6B3D
:1005000042F020021A631B6B069603F02003CDF81D
:1005100014800493049B0323089300F00BFE2146F0
:10052000C648059700F006FE32464146C24800F034
:1005300059FF32463946C14800F054FFC04AC14B0A
:100540004FF482711046556113604FF40043956279
:10055000C2E901134FF4E063C2E903354FF40073BD
:10056000C2E906350723C2E90855D36200F0F2FA62
:1005700008B100F009FDFFF7DDFE322000F052FD6A
:1005800001224FF48051AD4800F02CFF052000F00F
:1005900049FD00224FF48051A84800F023FF1420A9
:1005A00000F040FD01224FF48051A44800F01AFFF2
:1005B0009620A54D00F036FD0120FFF7CBFE7820F8
:1005C00000F030FD2B7928680590CB202371FFF7D0
:1005D000C1FE05212046FFF7DBFEB5F80520EB79CB
:1005E000CF20ADF81420A370FFF7B4FE03212046FE
:1005F000FFF7CEFE2A89AB7AE820ADF8142000255B
:10060000A370FFF7A7FE03212046FFF7C1FEEA20F3
:10061000ADF81450FFF79EFE02212046FFF7B8FE0A
:100620008A4BED200593FFF795FE04212046FFF746
:10063000AFFEF720FFF78EFE2020FFF7C7FEC02099
:10064000FFF788FE2320FFF7C1FEC120FFF782FEDF
:100650001020FFF7BBFE42F63E03C520ADF8143074
:10066000FFF778FE02212046FFF792FEC720FFF732
:1006700071FE8620FFF7AAFE3620FFF76BFE4820AA
:10068000FFF7A4FE3A20FFF765FE5520FFF79EFE18
:100690004FF4C053B120ADF81430FFF75BFE0221D8
:1006A0002046FFF775FE6A4BB6201A889B78ADF896
:1006B0001420A370FFF74EFE03212046FFF768FECB
:1006C000F220FFF747FE2846FFF780FE2620FFF7BF
:1006D00041FE0120FFF77AFE5E4B224603F1080639
:1006E0001868083353F8041C1546B34203C52A465C
:1006F000F6D1186899889B792860E020AB71A980B1
:10070000FFF728FE0F212046FFF742FE524B2246FC
:1007100003F108061868083353F8041C1546B34261
:1007200003C52A46F6D1186899889B792860E1208C
:10073000AB71A980FFF70EFE0F2120460524FFF7BD
:1007400027FE1120FFF706FE782000F06BFC292021
:10075000FFF700FE142000F065FC322000F062FC80
:1007600000214FF4A073F02208460091FFF738FEF5
:100770004FF478460A214FF4FC654FF01F080846F5
:100780003C2364220096FFF72BFE4FF6E0773C23D4
:1007900064220A2182200095FFF722FE5023DC22EA
:1007A0005A210A20CDF80080FFF71AFE5023A0221C
:1007B000C82128200097FFF713FE0A213C2364225A
:1007C00008460095FFF70CFE3C2364220A21822094
:1007D000CDF80080FFF704FE5023DC225A210A20C6
:1007E0000097FFF7FDFD5023A022C8212820009686
:1007F000FFF7F6FD0A213C2364220846CDF800806D
:10080000FFF7EEFD3C2364220A2182200097FFF7C8
:10081000E7FD5023DC225A210A200096FFF7E0FD75
:100820005023A022C82128200095FFF7D9FD013CC4
:100830009ED1FEE700380240000C02400014024046
:100840002800002000300140382000086403128195
:100850005220000856200008432000080A4B82B0AE
:100860001A6C42F080521A641A6C02F080520092A4
:10087000009A5A6C42F480425A645B6C03F48043E1
:100880000193019B02B070470038024010B588B058
:1008900004461422002103A8FFF720FD2268164B0E
:1008A0009A4226D103F58433052403A913485A6CD0
:1008B00042F480525A645A6C02F480520192019AB6
:1008C0001A6B42F001021A6320221B6B03F0010332
:1008D0000293029B0223CDE903230323CDE90634CF
:1008E00000F028FC802303A904480393079400F038
:1008F00021FC08B010BD00BF0030014000000240E4
:100900007047FEE7FEE7FEE7FEE7704708B500F038
:1009100077FB00F09BFE012803D0BDE8084000F003
:10092000F1BE08BD0F490020D1F8883043F47003B0
:10093000C1F888300C4B1A6842F001021A609860C6
:100940001A6822F0847222F480321A60074A5A60D0
:100950001A6822F480221A60D8604FF000638B601E
:10096000704700BF00ED00E0003802401030002466
:10097000F7B50E461446054600F04EFB3444241AE3
:1009800000F04AFB214B07461B68C3F3CB3363439C
:1009900001932A68906810F080002DD0731CF9D064
:1009A00000F03AFBC01BA04228D32B685A6822F003
:1009B000E0025A606A68B2F5827F0AD1AA68B2F58D
:1009C000004F02D0B2F5806F03D11A6822F04002C6
:1009D0001A60AA6AB2F5005F07D11A6822F40052C1
:1009E0001A601A6842F400521A600123032085F845
:1009F0005D30002385F85C3003B0F0BD019B13B17E
:100A0000019B013BC4E71C46C3E700BF0000002078
:100A10002DE9F74317461D46002304463D440E4684
:100A20008DF8033000F0F8FA2D1A00F0F5FA284B93
:100A300023228046D4F800901B6853431B0D6B4360
:100A4000019322689068304038D0B6F5C06F06D167
:100A500099F80C30DBB28DF803309DF803307B1C25
:100A6000F0D000F0D9FAA0EB0800A84229D32368FF
:100A70005A6822F0E0025A606268B2F5827F0AD1B9
:100A8000A268B2F5004F02D0B2F5806F03D11A68A8
:100A900022F040021A60A26AB2F5005F07D11A681C
:100AA00022F400521A601A6842F400521A600123BC
:100AB000032084F85D30002384F85C3003B0BDE887
:100AC000F083019B13B1019B013BB9E71D46B8E7D9
:100AD0000000002073B513460D4616460A464FF433
:100AE000C0510446FFF794FF30B1236E032043F05A
:100AF0002003236602B070BD144B154A1B68B3FB7C
:100B0000F2F34FF47A72534301936368B3F5827F33
:100B100010D1324629462046FFF72AFF0028E4D1AB
:100B200033462A464FF4C0612046FFF771FF002884
:100B3000E0D0DAE7019B002BF2D0019B013B01934F
:100B400023689B681B06F5D4EAE700BF000000207D
:100B500000366E0170B50446002800F03B81036842
:100B60009D4A934218D0A2F57842934214D002F5E0
:100B70008062934210D002F5784293420CD002F585
:100B8000E052934208D002F58062934204D04FF4C1
:100B9000A471924800F0FAF963683BB1B3F5827F23
:100BA00004D040F249118D4800F0F0F9A36833F405
:100BB000806207D0B3F5004F04D04FF4A571874889
:100BC00000F0E4F9E368B3F5706F18D023F4006225
:100BD000B2F5C06F13D023F41062B2F5806F0ED05F
:100BE00023F44072B2F5006F09D023F48063B3F5AB
:100BF000407F04D040F24B11784800F0C7F9A36958
:100C000033F4007207D0B3F5802F04D04FF4A671EF
:100C1000724800F0BBF9636B33F0080304D040F274
:100C20004D116E4800F0B2F9E369A3B1182B09D851
:100C3000072B05D84FF4A771684800F0A7F90AE020
:100C4000674A04E0203B182BF4D84FF0013222FA17
:100C500003F3D907EED5236A33F0800304D040F2C2
:100C60004F115E4800F092F9636AE3B9236933F0EB
:100C7000020330D16369012B04D94FF4AA7157489C
:100C800000F084F96368B3F5827F40F08E80E369F9
:100C900093B3182B27D8072B23D84FF4AC714F48A8
:100CA00000F074F928E0102B07D04FF4A8714B48DE
:100CB00000F06CF9636A002BD8D0E369002B00F0D8
:100CC0008280182B76D8072B72D84FF4B171434825
:100CD00000F05CF977E040F25311404800F056F91B
:100CE000C8E73F4A04E0203B182BD6D84FF001322A
:100CF00022FA03F3DA07D0D50023A36294F85D301B
:100D000003F0FF0223B9204684F85C20FFF7BEFD04
:100D100002232268E06884F85D301368B0F5E06F64
:100D200023F0400313604FF0000350D91D46B0F587
:100D3000706F18BFA36200F470606368A66803F464
:100D40008273A16906F404463343266906F002065D
:100D50003343666906F00106334301F40076090C5B
:100D60003343E66901F0040106F038063343266A8E
:100D700006F080063343A66A06F400563343666BDA
:100D8000136006F00806636A03F01003334303435D
:100D900000200B432B435360D36923F40063D361DA
:100DA0000123206684F85D3070BD0023E361A3E772
:100DB0000B4A04E0203B182B87D84FF0013222FA6F
:100DC00003F3DB0781D50023C4E9043394E74FF430
:100DD0008055AEE70120E7E70030014065200008BC
:100DE000000101012DE9F7431F46836804460D46C3
:100DF00033F40043904604D040F23E31614800F0A5
:100E0000C5F800F009F994F85D308146012BD8B29D
:100E100040F0B580002D76D0B8F1000F73D094F873
:100E20005C30012B00F0AB800323266884F85C0063
:100E300084F85D300023A56323662364A4F83E8014
:100E4000A4F84430A4F84630A4F83C80C4E9133335
:100E5000A368B3F5004F07D1336823F04003336034
:100E6000336843F48043336033685B0603D43368EC
:100E700043F040033360E2686368B2F5E06F45D940
:100E800013B1B8F1010F07D135F8023BF360A56348
:100E9000E38F013B9BB2E387E38F9BB2D3B94A4612
:100EA00039462046FFF716FE002865D1A36833B9FE
:100EB00001932368DA6801929B680193019B0123E7
:100EC00084F85D300023206E84F85C30C01A18BFAF
:100ED000012018E0226893689D0705D5A36B33F8BD
:100EE000021BD160A363D3E700F096F8A0EB0900E2
:100EF000B842D1D3781CCFD00123032084F85D30D1
:100F0000002384F85C3003B0BDE8F08313B1B8F17E
:100F1000010F13D1E38F9BB2012B06D935F8023BA9
:100F2000F360A563E38F023B06E02B783373A36B7A
:100F30000133A363E38F013B9BB2E387E38F9BB253
:100F4000002BACD02268936899070CD5E18FA36B76
:100F500089B2012904D933F8021BD160A363E1E708
:100F60001B781373E3E700F057F8A0EB0900B842D1
:100F7000E4D37B1CE2D0BFE72023236696E7022060
:100F8000C1E700BF65200008704700000A4601461F
:100F9000024808B500F0F4FFFEE700BFA9200008F2
:100FA00038B50E4B05461A784FF47A73B3FBF2F35B
:100FB0000B4A1068B0FBF3F000F0A8F8044658B9EB
:100FC0000F2D09D8024629464FF0FF3000F05AF89D
:100FD000044B20461D6038BD0120FCE704000020C2
:100FE000000000200800002008B5032000F02CF8C5
:100FF0000F20FFF7D5FFFFF731FC002008BD0000F0
:10100000034A044B11681B780B441360704700BF00
:101010008C00002004000020014B1868704700BFBE
:101020008C00002038B50446FFF7F6FF0546631C28
:101030001EBF044B1B78E418FFF7EEFF431BA342CF
:10104000FAD338BD04000020C31E042B10B504469B
:1010500003D992210948FFF799FF09492302CA6879
:1010600003F4E06322F4E0621204120C134343F031
:10107000BF6343F40033CB6010BD00BFEB2000081A
:1010800000ED00E00F2A70B505460C46164603D960
:10109000AA211B48FFF77AFF0F2C03D9AB21184870
:1010A000FFF774FF174BD968C1F30221C1F10703A1
:1010B0000A1D042B28BF0423062A4FF0FF328CBFE1
:1010C0000339002102FA03F3002D02FA01F224EAA7
:1010D000030326EA020603FA01F343EA06034FEA92
:1010E0000313DBB206DB05F1604505F5614585F8C4
:1010F000003370BD05F00F05034A5355F9E700BFF3
:10110000EB20000800ED00E014ED00E00138B0F144
:10111000807F0BD24FF0E023054AF0215861002078
:1011200082F82310072298611A61704701207047E6
:1011300000ED00E0A44B98422DE9F74F04460D4620
:101140002BD003F58063984227D003F58063984243
:1011500023D003F5806398421FD003F58063984243
:101160001BD003F58063984217D003F58063984243
:1011700013D003F5806398420FD003F58063984243
:101180000BD003F58063984207D003F58063984243
:1011900003D0B1218D48FFF7F9FE2B881BB9B2218E
:1011A0008A48FFF7F3FE6B68894A934213D000F236
:1011B000F080A2F5801293420DD009D8032B0AD9F2
:1011C000113B012B07D9B3218048FFF7DFFE02E076
:1011D000804A9342F7D1AB68022B03D9B4217B48F4
:1011E000FFF7D4FE0026DFF8F88101232A6803FA0E
:1011F00006F707EA020937EA020240F0C3806A688C
:1012000022F01002022A18D12A690F2A03D9C52117
:101210006E48FFF7BBFEF10806F007004FF00F0C19
:1012200004EB810180000A6A0CFA00FC22EA0C0C33
:101230002A69824042EA0C020A624FEA460A032205
:10124000206802FA0AF220EA02006FEA020B6A68DA
:1012500002F0030101FA0AF10143216022F01001BA
:101260000139012917D8EA68032A03D9D921574837
:10127000FFF78CFEA168EA680BEA010102FA0AF2A4
:101280000A43A2606A686168C2F3001321EA070199
:10129000B3400B436360E368D7000BEA030BAB6812
:1012A00003FA0AF343EA0B03E3606BD54A4B06F0FB
:1012B0000300596C800041F48041596426F0030119
:1012C0005B6C01F1804103F4804301F59C31019393
:1012D000019B0F23D1F808C083402CEA030C3A4B42
:1012E0009C425FD003F580639C425DD003F5806330
:1012F0009C425BD003F580639C4259D003F5806328
:101300009C4257D003F580639C4255D003F580631F
:101310009C4253D003F580639C4251D003F5806317
:101320009C424FD003F580639C4214BF0A230923DB
:101330008340D00343EA0C038B606FEA0901D8F8BD
:10134000003054BF0B4049EA03039703C8F800304C
:10135000D8F8043054BF0B4049EA0303D002C8F860
:101360000430D8F8083054BF0B4049EA0303920216
:10137000C8F80830D8F80C3054BF0B4049EA0303D2
:10138000C8F80C300136102E7FF42FAF03B0BDE843
:10139000F08F124A93423FF41EAF23F48013A2F55C
:1013A000702216E70023C3E70123C1E70223BFE74A
:1013B0000323BDE70423BBE70523B9E70623B7E70B
:1013C0000723B5E70823B3E7000002404F210008D8
:1013D00000002110000012100038024000003110FF
:1013E000003C014070B5054616460C4621B94FF445
:1013F000CD710848FFF7CAFD012E06D940F29B11B6
:101400000448FFF7C3FDAC6170BD002EFBD124047E
:10141000F9E700BF4F21000843689A684B608A6073
:101420005160996003680861013303607047036984
:10143000D0E901128A6051605968814208BF5A6040
:10144000002202611A68013A1A60186870470000A9
:10145000064A13681968064B19B94FF0FF321A6033
:1014600070471268D268D2685268F8E7B800002066
:1014700098000020474B1B682DE9F74F002B40F0E8
:101480008180454B1D6801351D60CDB9434B1A68FD
:10149000126852B14FF0500372B683F31188BFF354
:1014A0006F8FBFF34F8F62B6FEE73D4A1968106831
:1014B000186011603B4A136801331360FFF7C8FFDF
:1014C000394E0024394F3368DFF8EC80AB420AD83C
:1014D000DFF8C8A0DFF8E4B0DAF800301B68D3B951
:1014E0004FF0FF333360D8F800301422DB6A5343E7
:1014F000FD582F4B1B68002B41D0012D94BF204677
:1015000044F001002B4B1B68002B18BF40F001007A
:1015100003B0BDE8F08FDAF80030DB68D3F80C9048
:10152000D9F80420954201D23260DCE709F10403C6
:1015300018460193FFF77BFFD9F828201AB109F16B
:101540001800FFF774FF484600F056FCD9F82C004D
:10155000DBF80020904201D9CBF80000142309F1F8
:10156000040103FB0070FFF757FFD8F80010D9F80B
:101570002C20CB6A9A4228BF44F00104ACE700F06B
:1015800075F8BAE70A4A13680133136000F06EF881
:101590000020B7E790000020B0000020B800002035
:1015A000B40000209C00002098000020BC00002017
:1015B000A4000020A00000201C050020AC0000209A
:1015C0001C4B1A681C4B70B41AB1012270BC1A6013
:1015D00070471A4D14261A60194C296806FB01F34E
:1015E000E258E018A2B142680833526823449A4294
:1015F0004260144B04BF52684260D2681A60124ABB
:10160000296012681968914210D170BC00F0BEBB0D
:1016100051B94FF0500372B683F31188BFF36F8F47
:10162000BFF34F8F62B6FEE70139D7E7186870BC89
:1016300000F0BEBB90000020A0000020AC00002005
:10164000BC0000201C05002094000020054B1B68F6
:1016500033B1054B1868B0FA80F04009400070477C
:1016600001207047A8000020900000207047000073
:10167000074B19680868B0E8F04F80F30988BFF39A
:101680006F8F4FF0000080F311887047AFF3008038
:101690001C05002000000000000000000000000009
:1016A000EFF30980BFF36F8F154B1A681EF0100F10
:1016B00008BF20ED108A20E9F04F106009B44FF008
:1016C000500072B680F31188BFF34F8FBFF36F8F56
:1016D00062B6FFF775FF4FF0000080F3118809BC78
:1016E00019680868B0E8F04F1EF0100F08BFB0ECA2
:1016F000108A80F30988BFF36F8F7047AFF30080C3
:101700001C05002008B54FF0500372B683F3118812
:10171000BFF36F8FBFF34F8F62B600F0FFFAFFF792
:10172000A9FE48B14FF0E0234FF08052C3F8042DDA
:10173000002383F3118808BD00F016FBF8E70000D2
:1017400011490323114A10B5C1E90433104B0C466B
:101750008A61CB614FF480630A66E01D0D4A0B621B
:1017600000234A6610228B624B62CB620B67CB660A
:101770004B678A66084900F03CFC0849204600F0A7
:1017800038FC2023A37110BD30090020B1210008CE
:101790003005002020050020BA210008BE210008E5
:1017A0002DE9F84FDFF87C8082468946164698F886
:1017B00000300BB9FFF7C4FF182707FB0A873D6FFE
:1017C000D7F86CB05D452BD9BC6E4846796E641B6A
:1017D0002944B44228BF34462246254400F011FC77
:1017E000BB6EA144361BAB4208BF0025ABEB050B1B
:1017F0005E4528BF5E4656B11823344432464846FB
:1018000003FB0A83596E2944354400F0FAFB24B1E6
:10181000182303FB0A88C8F870502046BDE8F88FEB
:101820000024E3E73009002070B514460646084658
:101830000D46FEF74BFD8442224628BF0246FE2A93
:10184000D3B208D8304600F8013B431EA9188D4298
:1018500008D1104470BDFF217370130AF01C317061
:10186000B370F2E715F8014B03F8014FEFE7000002
:10187000034B1B6A13B15B6803B11847704700BF85
:10188000C00A0020044B10B51C6824B1E36803B102
:1018900098472469F9E710BDBC0A002010B5EFF3A2
:1018A00011844FF0200181F311880B4A0B48137803
:1018B00092F90020002A4FF01B02B7BF08490749E0
:1018C0000B710123B8BF053101F8013B00F0AEF800
:1018D00084F3118810BD00BFBB0A0020DC09002082
:1018E000D809002038B52C4C2378002B52D1012088
:1018F0002070EFF311854FF0200181F311880A2247
:101900002649FEF79DFC85F311880A2000F032F984
:10191000EFF311854FF0200181F3118820486168B1
:101920007F29CAB200F1010320D80270A0687F2885
:10193000C2B203F1010120D81A7022697F2AD3B202
:1019400022D80B700223182215484B70194400F05E
:101950006DF885F31188636A03B1984700F068F960
:10196000FFF786FFBDE83840FFF798BF62F07F02BF
:10197000C909184603F8012CD2E762F07F02C009BA
:101980000B4601F8012CD2E763F07F03D20901F87E
:10199000013BD3E738BD00BFC00A0020C5210008C5
:1019A000DC09002007B501220DF107011046FFF701
:1019B000F7FE002819DD9DF80730072B08D8A3B1E2
:1019C000023B052B0FD8DFE803F01215181B1E2170
:1019D000802B1ED01B0608D501220DF107011046F1
:1019E000FFF7DEFE01E0FFF77DFF03B000BD00F072
:1019F00039F9FAE700F01CF9F7E7FFF739FFF4E7E8
:101A000000F048F9F1E7FFF749FFEEE7FFF73AFF8B
:101A1000EBE701220DF107011046FFF7C1FE002898
:101A2000E3DD9DF8070000F00BFADEE72DE9FF414A
:101A30004D4C06460F4615462378012B23D11F2D0A
:101A40006DD9BB1B7F2BDAB287BFDB0962F07F0247
:101A500006F1FF3306F8012C82BF06F8013CB31EE5
:101A600006F8022C7F2DEAB283BFED09991E62F0C1
:101A70007F0203F1FF3186BF03F8015C03F8022CFB
:101A800003F8012C54E03BB3022BD8D10123626947
:101A90000DF105008DF804307F2AD3B200F1010169
:101AA0002BD80370314BD3F80480E368A8EB030311
:101AB0007F2BD8B201F1010226D8087001A90120BC
:101AC000521AFEF7BDFB30B32378C4F80C80013BFB
:101AD00023702378012BB2D0254BD3F88420D3F880
:101AE00088309A4206D0A57825B90123A370FFF764
:101AF00059FFA57004B0BDE8F08163F07F03D209FF
:101B0000084601F8013CC7E760F07F00DB09114699
:101B100002F8010CCCE7636901336361D9E7E3693B
:101B2000EB40DB07D8D4172D8BD8711E06F8015C6B
:101B30000E4B5D68E368EB1A7F2BD8B207F1010208
:101B400007D83870521A0120FEF77AFB40B1E560E1
:101B5000C2E760F07F00DB09174602F8010CEBE7F3
:101B6000237801332370B7E7C00A0020001000E09B
:101B700030090020024610B5EFF311844FF0200128
:101B800081F3118803490846FFF750FF84F3118859
:101B900010BD00BFDC09002038B502460B46EFF34C
:101BA00011854FF0200181F311880A487F2BDCB2A8
:101BB00000F1010106D804700648FFF737FF85F3EE
:101BC000118838BD64F07F04DB09084601F8014C38
:101BD000ECE700BFDC09002070B50B46EFF3118580
:101BE0004FF0200181F31188104E7F2BD9B206F1FE
:101BF00001040DD831707F2AD3B204F101010ED84F
:101C0000024623700948FFF711FF85F3118870BD64
:101C100061F07F01DB09264604F8011CE5E763F06B
:101C20007F03D2090C4601F8013CE4E7DC090020FF
:101C300008B50A4B1B6A4BB11B683BB198470A4673
:101C400001460D20BDE80840FFF7C6BF044B0C203D
:101C50005968BDE80840FFF79FBF00BFC00A0020D9
:101C6000001000E038B5EFF311854FF0200181F34B
:101C70001188064C237833B105490B220846FFF73B
:101C8000D5FE0023237085F3118838BDC00A0020DB
:101C9000DC09002070B5EFF311854FF0200181F3CE
:101CA00011881C4C1C4861687F29CAB200F10103ED
:101CB0001AD80270A0687F28C2B203F101011AD8B5
:101CC0001A7022697F2AD3B21CD80B700223182203
:101CD00011484B701944FFF7A9FE85F31188636A18
:101CE000B3B1BDE87040184762F07F02C9091846D9
:101CF00003F8012CD8E762F07F02C0090B4601F817
:101D0000012CD8E763F07F03D20901F8013BD9E742
:101D100070BD00BFC00A0020DC09002010B5EFF341
:101D200011844FF0200181F311884FF0E0230C481B
:101D3000D3F8041DCAB211F4C07FC1F308031DBF5C
:101D400062F07F020749DB0905491CBF0A710531B2
:101D5000022201F8013BFFF769FE84F3118810BDF0
:101D6000DC090020D809002010B5EFF311844FF0F2
:101D7000200181F31188044903220846FFF756FE2B
:101D800084F3118810BD00BFDC09002010B5EFF30B
:101D900011844FF0200181F3118804491122084673
:101DA000FFF744FE84F3118810BD00BFDC0900205A
:101DB00010B5EFF311844FF0200181F311880C4B23
:101DC0000C4A1B69C01A80087F28C3B202F10101C6
:101DD00007D8137004220748FFF728FE84F3118800
:101DE00010BD63F07F03C0090A4601F8013CEBE730
:101DF000C00A0020DC09002010B5EFF311844FF079
:101E0000200181F311880C4B0C4A1B69C01A800811
:101E10007F28C3B202F1010107D8137006220748D8
:101E2000FFF704FE84F3118810BD63F07F03C0093F
:101E30000A4601F8013CEBE7C00A0020DC0900205B
:101E400038B51C4B1C6884B938BD2469002CFBD004
:101E500001339842F9D8EFF311854FF0200181F357
:101E600011887F2803D8144B08E00023F1E7134BB7
:101E700060F07F00053303F8010C012003F8010B2B
:101E8000A1687F29CAB203F101000CD81A70802220
:101E90002168FFF7C9FC162201460748FFF7C6FD77
:101EA00085F31188D0E762F07F02C909034600F884
:101EB000012CE6E7BC0A0020DC090020D80900203C
:101EC000F0B50D4691B00646002416F8013B83B1EB
:101ED000252B31D1116810AF0F2C01F1040307EB52
:101EE00084070968136004F1010347F8401C24D1FA
:101EF0001C46EFF311864FF0200181F311888022F8
:101F000001461E48FFF790FC7F2DEAB200F1010365
:101F100015D8027020467F28C2B203F1010115D8FE
:101F20006D461A70013C18D21A221448FFF77EFD44
:101F300086F3118811B0F0BD23461C46C5E762F058
:101F40007F02ED09184603F8012CDDE762F07F02FD
:101F5000C0090B4601F8012CDDE755F8042B7F2A58
:101F6000D3B201F1010002D80B700146DAE763F049
:101F70007F03D209014600F8013CF0E7DC090020AC
:101F80000FB407B504AB01AA002153F8040B019369
:101F9000FFF796FF03B05DF804EB04B07047000054
:101FA000DFF834D0002103E00C4B5B584350043180
:101FB0000B480C4B42189A42F6D30B4A02E000231E
:101FC00042F8043B094B9A42F9D3FEF7ABFCFEF70B
:101FD0008DF9FEF779FA704700000820E02100082B
:101FE000000000200C0000200C000020E80A002067
:101FF000FEE7034611F8012B03F8012B002AF9D163
:1020000070470A44914200F1FF3300D1704710B588
:1020100011F8014B03F8014F9142F9D110BD0000B6
:10202000F8B500BFF8BC08BC9E467047F8B500BFC5
:08203000F8BC08BC9E46704795
:10203800392C00340200C130850078000E140311D9
:102048000731C148080F0C31360F088227000F31BD
:102058002B0C0E084EF1370710030E0900433A2FD8
:1020680055736572732F7266696E6B2F53544D33B7
:1020780032437562654944452F6775697461725FBB
:10208800706564616C5F657A2F496E632F73746D38
:102098003332663778785F68616C5F7370692E6376
:1020A80000417373657274696F6E204661696C656F
:1020B800643A66696C652025732020202020202042
:1020C8002020202020202020202020202020202008
:1020D8002020202020206F6E206C696E65202564EA
:1020E8000D0A00433A2F55736572732F7266696E35
:1020F8006B2F53544D3332437562654944452F67FE
:1021080075697461725F706564616C5F657A2F448C
:102118007269766572732F53544D33324637787827
:102128005F48414C5F4472697665722F5372632F22
:1021380073746D3332663778785F68616C5F636F8C
:10214800727465782E6300433A2F55736572732F46
:102158007266696E6B2F53544D333243756265490D
:1021680044452F6775697461725F706564616C5F5F
:10217800657A2F447269766572732F53544D3332E2
:10218800463778785F48414C5F4472697665722FAC
:102198005372632F73746D3332663778785F686172
:1021A8006C5F6770696F2E63005465726D696E614C
:1021B8006C005254540053454747455200000000F4
:0821C80000000000000000000F
:0821D000FCE0FF7F01000000AC
:0421D80025020008D4
:0421DC0001020008F4
:0C21E0000024F4000100000010000000CA
:0400000508001FA12F
:00000001FF
