:020000040800F2
:1000000000000820551F0008E51E0008E71E000834
:10001000E91E0008EB1E0008ED1E000800000000AD
:10002000000000000000000000000000E10F0008D8
:10003000EF1E00080000000011100008F11E00086B
:10004000A51F0008A51F0008A51F0008A51F000880
:10005000A51F0008A51F0008A51F0008A51F000870
:10006000A51F0008A51F0008A51F0008A51F000860
:10007000A51F0008A51F0008A51F0008A51F000850
:10008000A51F0008A51F0008A51F0008A51F000840
:10009000A51F0008A51F0008A51F0008A51F000830
:1000A000A51F0008A51F0008A51F0008A51F000820
:1000B000A51F0008A51F0008A51F0008A51F000810
:1000C000A51F0008A51F0008A51F0008A51F000800
:1000D000A51F0008A51F0008A51F0008A51F0008F0
:1000E000A51F0008A51F0008A51F0008A51F0008E0
:1000F000A51F0008A51F0008A51F0008A51F0008D0
:10010000A51F0008A51F0008A51F0008A51F0008BF
:10011000A51F0008A51F0008A51F0008A51F0008AF
:10012000A51F0008A51F0008A51F0008A51F00089F
:10013000A51F0008A51F0008A51F0008A51F00088F
:10014000A51F0008A51F0008A51F0008A51F00087F
:10015000A51F0008A51F0008A51F0008A51F00086F
:10016000A51F0008A51F0008A51F0008A51F00085F
:10017000A51F0008A51F0008A51F0008000000001B
:10018000A51F0008A51F0008A51F0008A51F00083F
:10019000A51F0008A51F0008A51F0008A51F00082F
:1001A000A51F0008A51F0008A51F0008A51F00081F
:1001B000A51F0008A51F0008A51F0008A51F00080F
:1001C000A51F0008A51F000800000000A51F0008CB
:1001D000A51F0008A51F0008A51F0008A51F0008EF
:1001E000A51F0008A51F0008A51F0008A51F0008DF
:0801F000A51F0008A51F00086F
:1002000010B5054C237833B9044B13B10448AFF350
:1002100000800123237010BD0C00002000000000AE
:100220002C20000808B5034B1BB103490348AFF36A
:10023000008008BD00000000100000202C200008F5
:10024000F0B400EB4003DFF8800000EBC30000F1E6
:1002500018063069F768756887422ED3B368DC1BCF
:10026000631E934212D37D19D01900BF11F8013BD0
:1002700005F8013B013A05D011F8013B05F8013BB7
:10028000013AF3D1F0600120F0BC7047C0189042F1
:1002900017D37819121B11F8013B00F8013B013C00
:1002A000F9D1141C05D011F8013B05F8013B013AC6
:1002B000F9D1F4600120F0BC7047C01B01389042B6
:1002C000D1D20020F0BC7047CC080020034613F8C0
:1002D000012B002AFBD1181A013870477047000023
:1002E0000A460146024808B501F0FEFAFEE700BFE3
:1002F0005E20000838B50E4B05461A784FF47A7325
:10030000B3FBF2F30B4A1068B0FBF3F000F0A8F86F
:10031000044658B90F2D09D8024629464FF0FF3040
:1003200000F05AF8044B20461D6038BD0120FCE760
:1003300000000020080000200400002008B5032071
:1003400000F02CF80F20FFF7D5FF01F079FD002019
:1003500008BD0000034A044B11681B780B4413606E
:10036000704700BF2800002000000020014B1868E3
:10037000704700BF2800002038B50446FFF7F6FF9D
:100380000546631C1EBF044B1B78E418FFF7EEFF05
:10039000431BA342FAD338BD00000020C31E042B28
:1003A00010B5044603D992210948FFF799FF09497E
:1003B0002302CA6803F4E06322F4E0621204120C20
:1003C000134343F0BF6343F40033CB6010BD00BF61
:1003D000A020000800ED00E00F2A70B505460C468D
:1003E000164603D9AA211B48FFF77AFF0F2C03D921
:1003F000AB211848FFF774FF174BD968C1F30221EE
:10040000C1F107030A1D042B28BF0423062A4FF05D
:10041000FF328CBF0339002102FA03F3002D02FAE8
:1004200001F224EA030326EA020603FA01F343EA8F
:1004300006034FEA0313DBB206DB05F1604505F561
:10044000614585F8003370BD05F00F05034A53552B
:10045000F9E700BFA020000800ED00E014ED00E087
:100460000138B0F1807F0BD24FF0E023054AF02134
:100470005861002082F82310072298611A617047A2
:100480000120704700ED00E0A54B98422DE9F74FA1
:1004900004460D462BD003F58063984227D003F520
:1004A0008063984223D003F5806398421FD003F500
:1004B000806398421BD003F58063984217D003F500
:1004C0008063984213D003F5806398420FD003F500
:1004D000806398420BD003F58063984207D003F500
:1004E0008063984203D0B1218E48FFF7F9FE2B8834
:1004F0001BB9B2218B48FFF7F3FE6B688A4A93421F
:1005000013D000F2F180A2F5801293420DD009D8E9
:10051000032B0AD9113B012B07D9B3218148FFF7DF
:10052000DFFE02E0814A9342F7D1AB68022B03D988
:10053000B4217C48FFF7D4FE0026DFF8FC810122BD
:100540002B6802FA06F707EA030937EA030340F0CB
:10055000C4806B6823F01003022B18D12B690F2B7A
:1005600003D9C5216F48FFF7BBFEF10806F007006D
:100570004FF00F0C04EB810180000B6A0CFA00FCB9
:1005800023EA0C0C2B69834043EA0C030B624FEA0D
:10059000460B0323206803FA0BF320EA03006FEAFB
:1005A000030A6B6803F0030123F0100301FA0BF157
:1005B000013B0143012B216017D8EB68032B03D9C2
:1005C000D9215848FFF78CFEA168EB680AEA0101BF
:1005D00003FA0BF30B43A360636823EA07026B681B
:1005E000C3F30013B34013436360E36869680AEA26
:1005F000030AAB68CF0003FA0BF343EA0A03E36094
:100600006BD54B4B06F003005A6C800042F48042DD
:100610005A6426F003025B6C02F1804203F48043CB
:1006200002F59C320193019B0F23D2F808C083404E
:100630002CEA030C3A4B9C425FD003F580639C424A
:100640005DD003F580639C425BD003F580639C42E0
:1006500059D003F580639C4257D003F580639C42D8
:1006600055D003F580639C4253D003F580639C42D0
:1006700051D003F580639C424FD003F580639C42C8
:1006800014BF0A2309238340C80343EA0C03936081
:100690006FEA0902D8F8003054BF134049EA030357
:1006A0008F03C8F80030D8F8043054BF134049EA2B
:1006B0000303C802C8F80430D8F8083054BF134008
:1006C00049EA03038902C8F80830D8F80C3054BF4F
:1006D000134049EA0303C8F80C300136102E7FF4AA
:1006E0002EAF03B0BDE8F08F124A93423FF41DAF26
:1006F00023F48013A2F5702215E70023C3E701233A
:10070000C1E70223BFE70323BDE70423BBE70523BB
:10071000B9E70623B7E70723B5E70823B3E700BF28
:10072000000002400121000800002110000012100A
:100730000038024000003110003C014070B5054611
:1007400016460C4621B94FF4CD710848FFF7C8FD95
:10075000012E06D940F29B110448FFF7C1FDAC61A0
:1007600070BD002EFBD12404F9E700BF0121000871
:10077000F7B50E4614460546FFF7F8FD3444241A33
:10078000FFF7F4FD214B07461B68C3F3CB336343EC
:1007900001932A68906810F080002DD0731CF9D066
:1007A000FFF7E4FDC01BA04228D32B685A6822F053
:1007B000E0025A606A68B2F5827F0AD1AA68B2F58F
:1007C000004F02D0B2F5806F03D11A6822F04002C8
:1007D0001A60AA6AB2F5005F07D11A6822F40052C3
:1007E0001A601A6842F400521A600123032085F847
:1007F0005D30002385F85C3003B0F0BD019B13B180
:10080000019B013BC4E71C46C3E700BF0800002072
:100810002DE9F74317461D46002304463D440E4686
:100820008DF80330FFF7A2FD2D1AFFF79FFD284B2F
:1008300023228046D4F800901B6853431B0D6B4362
:10084000019322689068304038D0B6F5C06F06D169
:1008500099F80C30DBB28DF803309DF803307B1C27
:10086000F0D0FFF783FDA0EB0800A84229D323684E
:100870005A6822F0E0025A606268B2F5827F0AD1BB
:10088000A268B2F5004F02D0B2F5806F03D11A68AA
:1008900022F040021A60A26AB2F5005F07D11A681E
:1008A00022F400521A601A6842F400521A600123BE
:1008B000032084F85D30002384F85C3003B0BDE889
:1008C000F083019B13B1019B013BB9E71D46B8E7DB
:1008D0000800002073B513460D4616460A464FF42D
:1008E000C0510446FFF794FF30B1236E032043F05C
:1008F0002003236602B070BD144B154A1B68B3FB7E
:10090000F2F34FF47A72534301936368B3F5827F35
:1009100010D1324629462046FFF72AFF0028E4D1AD
:1009200033462A464FF4C0612046FFF771FF002886
:10093000E0D0DAE7019B002BF2D0019B013B019351
:1009400023689B681B06F5D4EAE700BF0800002077
:1009500000366E0170B50446002800F03B81036844
:100960009D4A934218D0A2F57842934214D002F5E2
:100970008062934210D002F5784293420CD002F587
:10098000E052934208D002F58062934204D04FF4C3
:10099000A4719248FFF7A4FC63683BB1B3F5827F72
:1009A00004D040F249118D48FFF79AFCA36833F454
:1009B000806207D0B3F5004F04D04FF4A57187488B
:1009C000FFF78EFCE368B3F5706F18D023F4006274
:1009D000B2F5C06F13D023F41062B2F5806F0ED061
:1009E00023F44072B2F5006F09D023F48063B3F5AD
:1009F000407F04D040F24B117848FFF771FCA369A7
:100A000033F4007207D0B3F5802F04D04FF4A671F1
:100A10007248FFF765FC636B33F0080304D040F2C3
:100A20004D116E48FFF75CFCE369A3B1182B09D8A0
:100A3000072B05D84FF4A7716848FFF751FC0AE06F
:100A4000674A04E0203B182BF4D84FF0013222FA19
:100A500003F3D907EED5236A33F0800304D040F2C4
:100A60004F115E48FFF73CFC636AE3B9236933F03A
:100A7000020330D16369012B04D94FF4AA7157489E
:100A8000FFF72EFC6368B3F5827F40F08E80E36948
:100A900093B3182B27D8072B23D84FF4AC714F48AA
:100AA000FFF71EFC28E0102B07D04FF4A8714B482D
:100AB000FFF716FC636A002BD8D0E369002B00F027
:100AC0008280182B76D8072B72D84FF4B171434827
:100AD000FFF706FC77E040F253114048FFF700FCB7
:100AE000C8E73F4A04E0203B182BD6D84FF001322C
:100AF00022FA03F3DA07D0D50023A36294F85D301D
:100B000003F0FF0223B9204684F85C2001F0B0F91D
:100B100002232268E06884F85D301368B0F5E06F66
:100B200023F0400313604FF0000350D91D46B0F589
:100B3000706F18BFA36200F470606368A66803F466
:100B40008273A16906F404463343266906F002065F
:100B50003343666906F00106334301F40076090C5D
:100B60003343E66901F0040106F038063343266A90
:100B700006F080063343A66A06F400563343666BDC
:100B8000136006F00806636A03F01003334303435F
:100B900000200B432B435360D36923F40063D361DC
:100BA0000123206684F85D3070BD0023E361A3E774
:100BB0000B4A04E0203B182B87D84FF0013222FA71
:100BC00003F3DB0781D50023C4E9043394E74FF432
:100BD0008055AEE70120E7E70030014060210008C2
:100BE000000101012DE9F7431F46836804460D46C5
:100BF00033F40043904604D040F23E316148FFF7A1
:100C00006FFBFFF7B3FB94F85D308146012BD8B240
:100C100040F0B580002D76D0B8F1000F73D094F875
:100C20005C30012B00F0AB800323266884F85C0065
:100C300084F85D300023A56323662364A4F83E8016
:100C4000A4F84430A4F84630A4F83C80C4E9133337
:100C5000A368B3F5004F07D1336823F04003336036
:100C6000336843F48043336033685B0603D43368EE
:100C700043F040033360E2686368B2F5E06F45D942
:100C800013B1B8F1010F07D135F8023BF360A5634A
:100C9000E38F013B9BB2E387E38F9BB2D3B94A4614
:100CA00039462046FFF716FE002865D1A36833B900
:100CB00001932368DA6801929B680193019B0123E9
:100CC00084F85D300023206E84F85C30C01A18BFB1
:100CD000012018E0226893689D0705D5A36B33F8BF
:100CE000021BD160A363D3E7FFF740FBA0EB090031
:100CF000B842D1D3781CCFD00123032084F85D30D3
:100D0000002384F85C3003B0BDE8F08313B1B8F180
:100D1000010F13D1E38F9BB2012B06D935F8023BAB
:100D2000F360A563E38F023B06E02B783373A36B7C
:100D30000133A363E38F013B9BB2E387E38F9BB255
:100D4000002BACD02268936899070CD5E18FA36B78
:100D500089B2012904D933F8021BD160A363E1E70A
:100D60001B781373E3E7FFF701FBA0EB0900B84220
:100D7000E4D37B1CE2D0BFE72023236696E7022062
:100D8000C1E700BF60210008704743689A684B6064
:100D90008A6051609960036808610133036070479D
:100DA0000369D0E901128A6051605968814208BF25
:100DB0005A60002202611A68013A1A601868704786
:100DC000064A13681968064B19B94FF0FF321A60CA
:100DD00070471268D268D2685268F8E75400002061
:100DE00034000020444B1B682DE9F74F002B7BD1CA
:100DF000424B1D6801351D60CDB9414B1A68126820
:100E000052B14FF0500372B683F31188BFF36F8F66
:100E1000BFF34F8F62B6FEE73A4A19681068186050
:100E20001160394A136801331360FFF7C9FF374E69
:100E30000024374F3368DFF8E480AB4216D9D8F886
:100E400000301422DB6A5343FB58022B314B1B68E2
:100E500028BF01240BB9FFF797FF2F4B1B68002B0E
:100E60000CBF2046012003B0BDE8F08FDFF890A052
:100E7000DFF8ACB0DAF800301B681BB94FF0FF3375
:100E80003360DCE7DAF80030DB68D3F80C90D9F88F
:100E90000420954201D23260D1E709F104031846DB
:100EA0000193FFF77DFFD9F828201AB109F1180046
:100EB000FFF776FF484600F053FCD9F82C00DBF82A
:100EC0000020904201D9CBF800001423019903FBC4
:100ED0000070FFF75AFFD8F80010D9F82C20CB6A21
:100EE0009A4228BF0124C5E70A4A00241368013347
:100EF0001360FFF749FFB0E72C0000204C000020F2
:100F00005400002050000020380000203400002051
:100F100058000020400000203C000020B8040020C1
:100F2000480000201E4B1A681E4B70B41AB10122F3
:100F300070BC1A6070471C4D14261A601B492A6841
:100F400006FB02F3CC58C818C4B14468083364687F
:100F50000B449C42446004BF63684360142303FB5A
:100F600002114B68D968124B19602A60114A19683E
:100F70001268914210D170BC00F0BCBB52B94FF066
:100F8000500372B683F31188BFF36F8FBFF34F8F97
:100F900062B6FEE7013AD3E7186870BC00F0BCBB4C
:100FA0002C0000203C0000204800002058000020B9
:100FB000B804002030000020054B1B6833B1054BFE
:100FC0001868B0FA80F0400940007047012070476F
:100FD000440000202C000020000000000000000061
:100FE000074B19680868B0E8F04F80F30988BFF331
:100FF0006F8F4FF0000080F311887047AFF30080CF
:10100000B804002000000000000000000000000004
:10101000EFF30980BFF36F8F154B1A681EF0100FA6
:1010200008BF20ED108A20E9F04F10602DE909007B
:101030004FF0500072B680F31188BFF34F8FBFF3AB
:101040006F8F62B6FFF76EFF4FF0000080F31188DC
:1010500009BC19680868B0E8F04F1EF0100F08BF0F
:10106000B0EC108A80F30988BFF36F8F704700BF20
:10107000B804002008B54FF0500372B683F311880E
:10108000BFF36F8FBFF34F8F62B600F0FBFAFFF72D
:10109000A9FE48B14FF0E0234FF08052C3F8042D71
:1010A000002383F3118808BD00F012FBF8E700006D
:1010B00010B50323104C114A1149E01DA2612266AC
:1010C000104AC4E90433104B62661022E3614FF406
:1010D0008063A26623620023A3626362E3622367E4
:1010E000E366636700F08CFF0849204600F088FF44
:1010F0002023A37110BD00BFCC0800207B21000875
:1011000084210008BC040020CC04002088210008B1
:101110002DE9F84FDFF87C8082468946164698F81C
:1011200000300BB9FFF7C4FF182707FB0A873D6F94
:10113000D7F86CB05D452BD9BC6E4846796E641B00
:101140002944B44228BF34462246254400F060FFBB
:10115000BB6EA144361BAB4208BF0025ABEB050BB1
:101160005E4528BF5E4656B1182334443246484691
:1011700003FB0A83596E2944354400F049FF24B12A
:10118000182303FB0A88C8F870502046BDE8F88F82
:101190000024E3E7CC08002070B516460546084653
:1011A0000C46FFF793F8B04228BF3046FE28C2B283
:1011B00008D82B4603F8012B5A1E21188C4208D15F
:1011C000184470BDFF236A70020A2B70EB1CAA70D2
:1011D000F2E714F8015B02F8015FEFE7034B1B6ACB
:1011E00013B15B6803B11847704700BF5C0A002069
:1011F000044B10B51C6824B1E36803B19847246917
:10120000F9E710BD580A002010B5EFF311844FF034
:10121000200181F31188094B1B2209481B787F2B81
:1012200089BF084906490B71012388BF053101F8C0
:10123000013B00F0AFF884F3118810BD570A00207D
:10124000780900207409002038B52C4C2378002B35
:1012500052D101202070EFF311854FF0200181F36E
:1012600011880A222649FEF7EBFF85F311880A2030
:1012700000F034F9EFF311854FF0200181F311886C
:10128000204861687F29CAB200F1010320D80270AA
:10129000A0687F28C2B203F1010120D81A70226928
:1012A0007F2AD3B222D80B700223182215484B7024
:1012B000194400F06FF885F31188636A03B1984709
:1012C00000F06AF9FFF78AFFBDE83840FFF79CBFDE
:1012D00062F07F02C909184603F8012CD2E762F0D8
:1012E0007F02C0090B4601F8012CD2E763F07F03AF
:1012F000D20901F8013BD3E738BD00BF5C0A0020EA
:10130000A22100087809002007B501220DF107018C
:101310001046FFF7FDFE002819DD9DF80730072B6A
:1013200008D8A3B1023B052B0FD8DFE803F0131652
:10133000191C1F22802B1FD01B0608D501220DF17E
:1013400007011046FFF7E4FE01E0FFF77DFF03B061
:101350005DF804FB00F03AF9F9E700F01DF9F6E753
:10136000FFF73CFFF3E700F049F9F0E7FFF74CFF28
:10137000EDE7FFF73DFFEAE701220DF10701104617
:10138000FFF7C6FE0028E2DD9DF8070000F00CFA2A
:10139000DDE700002DE9FF414D4C06460F4615469E
:1013A0002378012B23D11F2D6DD9BB1B7F2BDAB2E4
:1013B00087BFDB0962F07F0206F1FF3306F8012CDC
:1013C00082BF06F8013CB31E06F8022C7F2DEAB25C
:1013D00083BFED09991E62F07F0203F1FF3186BFE2
:1013E00003F8015C03F8022C03F8012C54E03BB332
:1013F000022BD8D1012362690DF105008DF804306C
:101400007F2AD3B200F101012BD80370314BD3F8FE
:101410000480E368A8EB03037F2BD8B201F101023B
:1014200026D8087001A90120521AFEF709FF30B32F
:101430002378C4F80C80013B23702378012BB2D0B1
:10144000254BD3F88420D3F888309A4206D0A5786B
:1014500025B90123A370FFF757FFA57004B0BDE8BD
:10146000F08163F07F03D209084601F8013CC7E729
:1014700060F07F00DB09114602F8010CCCE76369DC
:1014800001336361D9E7E369EB40DB07D8D4172D5B
:101490008BD8711E06F8015C0E4B5D68E368EB1A91
:1014A0007F2BD8B207F1010207D83870521A0120F9
:1014B000FEF7C6FE40B1E560C2E760F07F00DB09E1
:1014C000174602F8010CEBE7237801332370B7E7E6
:1014D0005C0A0020001000E0CC080020024610B595
:1014E000EFF311844FF0200181F31188034908467E
:1014F000FFF750FF84F3118810BD00BF780900206A
:1015000038B502460B46EFF311854FF0200181F309
:1015100011880A487F2BDCB200F1010106D8047063
:101520000648FFF737FF85F3118838BD64F07F0464
:10153000DB09084601F8014CECE700BF7809002000
:1015400070B50B46EFF311854FF0200181F3118840
:10155000104E7F2BD9B206F101040DD831707F2ACD
:10156000D3B204F101010ED8024623700948FFF7F7
:1015700011FF85F3118870BD61F07F01DB092646FC
:1015800004F8011CE5E763F07F03D2090C4601F87B
:10159000013CE4E77809002008B50A4B1B6A4BB10F
:1015A0001B683BB198470A4601460D20BDE808403C
:1015B000FFF7C6BF044B0C205968BDE80840FFF791
:1015C0009FBF00BF5C0A0020001000E038B5EFF3B9
:1015D00011854FF0200181F31188064C237833B137
:1015E00005490B220846FFF7D5FE0023237085F33B
:1015F000118838BD5C0A00207809002070B5EFF32F
:1016000011854FF0200181F311881C4C1C48616842
:101610007F29CAB200F101031AD80270A0687F289E
:10162000C2B203F101011AD81A7022697F2AD3B21B
:101630001CD80B700223182211484B701944FFF775
:10164000A9FE85F31188636AB3B1BDE870401847FD
:1016500062F07F02C909184603F8012CD8E762F04E
:101660007F02C0090B4601F8012CD8E763F07F0325
:10167000D20901F8013BD9E770BD00BF5C0A002028
:101680007809002010B5EFF311844FF0200181F3A9
:1016900011884FF0E0230C48D3F8041DCAB211F4AE
:1016A000C07FC1F308031DBF62F07F020749DB0959
:1016B00005491CBF0A710531022201F8013BFFF701
:1016C00069FE84F3118810BD780900207409002098
:1016D00010B5EFF311844FF0200181F31188044914
:1016E00003220846FFF756FE84F3118810BD00BFA1
:1016F0007809002010B5EFF311844FF0200181F339
:101700001188044911220846FFF744FE84F311882A
:1017100010BD00BF7809002010B5EFF311844FF021
:10172000200181F311880C4B0C4A1B69C01A8008F8
:101730007F28C3B202F1010107D8137004220748C1
:10174000FFF728FE84F3118810BD63F07F03C00902
:101750000A4601F8013CEBE75C0A0020780900200A
:1017600010B5EFF311844FF0200181F311880C4B79
:101770000C4A1B69C01A80087F28C3B202F101011C
:1017800007D8137006220748FFF704FE84F3118878
:1017900010BD63F07F03C0090A4601F8013CEBE786
:1017A0005C0A00207809002038B51C4B1C6884B9FD
:1017B00038BD2469002CFBD001339842F9D8EFF3EF
:1017C00011854FF0200181F311887F2804D8144B34
:1017D00008E000230246F0E7124B60F07F00012290
:1017E0001871053303F8012BA1687F29CAB203F1F0
:1017F00001000CD81A7080222168FFF7CDFC162258
:1018000001460748FFF7C6FD85F31188D0E762F06F
:101810007F02C909034600F8012CE6E7580A0020B8
:101820007809002074090020F0B50D4691B00646F5
:10183000002416F8013B83B1252B31D1116810AF7C
:101840000F2C01F1040307EB84070968136004F10E
:10185000010347F8401C24D11C46EFF311864FF0DA
:10186000200181F31188802201461E48FFF794FC75
:101870007F2DEAB200F1010315D8027020467F28BF
:10188000C2B203F1010115D86D461A70013C18D29D
:101890001A221448FFF77EFD86F3118811B0F0BDBF
:1018A00023461C46C5E762F07F02ED09184603F89F
:1018B000012CDDE762F07F02C0090B4601F8012C24
:1018C000DDE755F8042B7F2AD3B201F1010002D8DD
:1018D0000B700146DAE763F07F03D209014600F896
:1018E000013CF0E7780900200FB407B504AB01AA6A
:1018F000002153F8040B0193FFF796FF03B05DF846
:1019000004EB04B07047000001224FF4804101480D
:10191000FEF714BF000C024000224FF48041014842
:10192000FEF70CBF000C024007B58DF80700FFF76B
:10193000F3FF00224FF400410948FEF7FFFE4FF08D
:10194000FF3301220DF107010648FFF74BF908B1FB
:10195000FEF7C4FCFFF7D8FF03B05DF804FB00BF3F
:10196000000C0240840A002038B504460D46FFF7FB
:10197000D3FF01224FF400410848FEF7DFFE4FF08D
:10198000FF332A4621460648FFF72CF908B1FEF737
:10199000A5FCBDE83840FFF7B7BF00BF000C024010
:1019A000840A002007B501218DF807000DF107001A
:1019B000FFF7DAFF03B05DF804FB00002DE9F04FFC
:1019C0001D468318144600F1FF3BF02B01EB050385
:1019D00001F1FF37A1B0C8BFC0F1F00481464FF05C
:1019E00000064FF02A00C8BFA4B2B3F5A07F884616
:1019F000BDF8A8A0C8BFC1F5A075A344C8BFADB2CB
:101A00001FFA8BFB2F44FFF78FFF9BFA9BFB0421F0
:101A1000BFB268468DF800607FBA8DF80190ADF8CE
:101A200002B0FFF7A1FF2B20FFF77EFF04216846DD
:101A30008DF800608DF80180ADF80270FFF794FF1B
:101A40002C20FFF771FF6B464FEA1A225FFA8AFAE1
:101A500001361A7083F801A00233402EF8D16C438E
:101A60000F4EFFF759FF01224FF400410D48FEF7DA
:101A700065FE402C25464FF0FF33694628BF4025C0
:101A800030466A0092B2FFF7ADF808B1FEF726FCC7
:101A9000641BEED1FFF738FF21B0BDE8F08F00BF27
:101AA000840A0020000C02402DE9F0418AB0002495
:101AB000FEF744FCA74B099401254FF4404705A9C4
:101AC000A5484FF48056CDE907441A6B42F008024E
:101AD0001A631A6B02F008020392039A1A6B42F01F
:101AE00020021A631B6B069503F0200305970493ED
:101AF000049B03230893FEF7C7FC05A997480596A6
:101B0000FEF7C2FC2A4639469348FEF717FE2A46DE
:101B100031469248FEF712FE91484FF48273914A83
:101B20004FF400418462C0E900234FF4E063C0E950
:101B300002134FF40073C0E906340723C0E90444DC
:101B4000C0E90844C362FEF705FF08B1FEF7C6FB13
:101B5000FFF7DAFE3220FEF70FFC01224FF480512E
:101B60007E48FEF7EBFD0520FEF706FC00224FF451
:101B700080517A48FEF7E2FD1420FEF7FDFB0122BA
:101B80004FF480517548FEF7D9FD9620764CFEF74C
:101B9000F3FB0120FFF7C8FE7820FEF7EDFB20687D
:101BA00023790590CB208DF81830FFF7BDFE052175
:101BB00005A8FFF7D9FEB4F80520E379CF20ADF8EA
:101BC00014208DF81630FFF7AFFE032105A8FFF7AC
:101BD000CBFE2289A37AE820ADF8142000248DF8EA
:101BE0001630FFF7A1FE032105A8FFF7BDFEEA208E
:101BF000ADF81440FFF798FE022105A8FFF7B4FEE8
:101C00005A4BED200593FFF78FFE042105A8FFF73F
:101C1000ABFEF720FFF788FE2020FFF7C3FEC020B1
:101C2000FFF782FE2320FFF7BDFEC120FFF77CFEF9
:101C30001020FFF7B7FE42F63E03C520ADF8143082
:101C4000FFF772FE022105A8FFF78EFEC720FFF7FF
:101C50006BFE8620FFF7A6FE3620FFF765FE4820C4
:101C6000FFF7A0FE3A20FFF75FFE5520FFF79AFE30
:101C70004FF4C053B120ADF81430FFF755FE0221E8
:101C800005A8FFF771FE3A4BB6201A889B78ADF88D
:101C900014208DF81630FFF747FE032105A8FFF743
:101CA00063FEF220FFF740FE2046FFF77BFE262072
:101CB000FFF73AFE0120FFF775FE2E4B05AA03F150
:101CC00008051868083353F8041C1446AB4203C4D3
:101CD0002246F6D1186899889B792060E020A3718C
:101CE000A180FFF721FE0F2105A8FFF73DFE224B43
:101CF00005AA03F108051868083353F8041C1446B4
:101D0000AB4203C42246F6D1186899889B792060BB
:101D1000E120A371A1800524FFF706FE0F2105A88D
:101D2000FFF722FE1120FFF7FFFD7820FEF724FBCE
:101D30002920FFF7F9FD1420FEF71EFB3220FEF7E5
:101D40001BFB00214FF4A073F02208460091FFF71F
:101D500035FE13E000380240000C0240001402403F
:101D6000840A0020003001404420000864031281EE
:101D70008F210008932100084F2000084FF4784677
:101D80000A214FF4FC654FF01F0808463C236422EB
:101D90000096FFF713FE4FF6E0773C2364220A21FA
:101DA00082200095FFF70AFE5023DC225A210A20E8
:101DB000CDF80080FFF702FE5023A022C821282082
:101DC0000097FFF7FBFD0A213C236422084600959B
:101DD000FFF7F4FD3C2364220A218220CDF8008025
:101DE000FFF7ECFD5023DC225A210A200097FFF771
:101DF000E5FD5023A022C82128200096FFF7DEFD34
:101E00000A213C2364220846CDF80080FFF7D6FD66
:101E10003C2364220A2182200097FFF7CFFD502344
:101E2000DC225A210A200096FFF7C8FD5023A02289
:101E3000C82128200095FFF7C1FD013C9ED1FEE797
:101E40000A4B82B01A6C42F080521A641A6C02F08B
:101E500080520092009A5A6C42F480425A645B6C41
:101E600003F480430193019B02B0704700380240A5
:101E700010B588B004461422002103A800F093F89E
:101E80002268164B9A4226D103F58433052403A910
:101E900013485A6C42F480525A645A6C02F48052CD
:101EA0000192019A1A6B42F001021A6320221B6B05
:101EB00003F001030293029B0223CDE903230323D2
:101EC000CDE90634FEF7E0FA802303A90448039322
:101ED0000794FEF7D9FA08B010BD00BF00300140EA
:101EE000000002407047FEE7FEE7FEE7FEE77047AE
:101EF00008B5FEF72FFAFFF75FF8012803D0BDE819
:101F00000840FFF7B7B808BD0F490020D1F8883066
:101F100043F47003C1F888300C4B1A6842F0010298
:101F20001A6098601A6822F0847222F480321A6073
:101F3000074A5A601A6822F480221A60D8604FF06B
:101F400000638B60704700BF00ED00E00038024086
:101F500010300024DFF834D0002103E00C4B5B5834
:101F6000435004310B480C4B42189A42F6D30B4AAB
:101F700002E0002342F8043B094B9A42F9D3FFF7F1
:101F8000C3FF00F019F8FFF78FFD7047000008202D
:101F9000BC210008000000200C0000200C000020E4
:101FA000E80A0020FEE702440346934200D170474E
:101FB00003F8011BF9E7000070B50D4D0D4C641BD3
:101FC000A4100026A64209D10B4D0C4C00F02EF8AF
:101FD000641BA4100026A64205D170BD55F8043B31
:101FE00098470136EEE755F8043B98470136F2E78B
:101FF000B4210008B4210008B4210008B821000869
:10200000034611F8012B03F8012B002AF9D1704780
:102010000A44914200F1FF3300D1704710B511F826
:10202000014B03F8014F9142F9D110BDF8B500BF43
:10203000F8BC08BC9E467047F8B500BFF8BC08BCA9
:042040009E46704701
:10204400392C00340200C130850078000E140311CD
:102054000731C148080F0C31360F41737365727430
:10206400696F6E204661696C65643A66696C6520C7
:102074002573202020202020202020202020202004
:102084002020202020202020202020202020206FFD
:102094006E206C696E652025640D0A00433A2F5545
:1020A400736572732F7266696E6B2F53544D33329E
:1020B400437562654944452F7061636B426F6F6B72
:1020C40054524F532F447269766572732F53544D93
:1020D4003332463778785F48414C5F44726976659D
:1020E400722F5372632F73746D3332663778785F4F
:1020F40068616C5F636F727465782E6300433A2F76
:1021040055736572732F7266696E6B2F53544D331A
:1021140032437562654944452F7061636B426F6F4A
:102124006B54524F532F447269766572732F535414
:102134004D3332463778785F48414C5F4472697654
:1021440065722F5372632F73746D333266377878E8
:102154005F68616C5F6770696F2E63002E2E2F4974
:102164006E632F73746D3332663778785F68616C91
:102174005F7370692E63005465726D696E616C00E3
:102184005254540053454747455200088227000FD4
:10219400312B0C0E084EF1370710030E0900000016
:0821A400000000000000000033
:0821AC0020E1FF7F01000000AB
:0421B40025020008F8
:0421B8000102000818
:0C21BC0001000000100000000024F400EE
:0400000508001F557B
:00000001FF
